:020000040800F2
:10000000A0070020CD01000839050008F904000808
:1000100035050008C90200088B0C0008000000002C
:100020000000000000000000000000006708000859
:10003000CD02000800000000AD050008050A000818
:10004000E7010008E7010008E7010008E7010008F0
:10005000E7010008E7010008E7010008E7010008E0
:10006000E7010008E7010008E7010008E7010008D0
:10007000E7010008E7010008E7010008E7010008C0
:10008000E7010008E7010008E7010008E7010008B0
:10009000E7010008E7010008E7010008E7010008A0
:1000A000E7010008E7010008E7010008E701000890
:1000B000E7010008E7010008E7010008E701000880
:1000C000E7010008E7010008E7010008E701000870
:1000D000E7010008690A0008E7010008E7010008D5
:1000E000E7010008E7010008E7010008E701000850
:1000F000E7010008E7010008E7010008E701000840
:10010000E7010008E7010008E7010008E70100082F
:10011000E7010008E7010008E7010008E70100081F
:10012000E7010008E7010008E7010008E70100080F
:1001300000F002F800F03AF80AA090E8000C8244BF
:100140008344AAF10107DA4501D100F02FF8AFF29C
:10015000090EBAE80F0013F0010F18BFFB1A43F0A5
:1001600001031847900C0000B00C0000103A24BFA7
:1001700078C878C1FAD8520724BF30C830C144BF0C
:1001800004680C607047000000230024002500264E
:10019000103A28BF78C1FBD8520728BF30C148BFEA
:1001A0000B6070471FB51FBD10B510BD00F05AF8A9
:1001B0001146FFF7F7FF00F0B5FD00F078F803B443
:1001C000FFF7F2FF03BC00F062FD00000948804722
:1001D00009480047FEE7FEE7FEE7FEE7FEE7FEE729
:1001E000FEE7FEE7FEE7FEE704480549054A064B41
:1001F00070470000090A000831010008A001002032
:10020000A0070020A0030020A003002070474FF0AB
:10021000000200B5134694469646203922BFA0E856
:100220000C50A0E80C50B1F12001BFF4F7AF090762
:1002300028BFA0E80C5048BF0CC05DF804EB890053
:1002400028BF40F8042B08BF704748BF20F8022B96
:1002500011F0804F18BF00F8012B704770477047AE
:1002600070477047754600F02BF8AE4605006946AA
:10027000534620F00700854618B020B5FFF7B4FFBD
:10028000BDE820404FF000064FF000074FF0000897
:100290004FF0000B21F00701AC46ACE8C009ACE818
:1002A000C009ACE8C009ACE8C0098D46704710B57C
:1002B0000446AFF300802046BDE81040FFF77FBF43
:1002C000004870473C01002000BFFEE770472DE961
:1002D000F0410246002500260020002300240027CC
:1002E00091F803C00CF00F0591F803C00CF0100C4E
:1002F000BCF1000F03D091F802C04CEA050591F85B
:1003000000C0BCF1000F31D0146800202BE04FF08A
:10031000010C0CFA00F3B1F800C00CEA03069E428F
:1003200020D183004FF00F0C0CFA03F7BC4305FA01
:1003300003FC4CEA040491F803C0BCF1280F06D179
:100340004FF0010C0CFA00FCC2F814C00AE091F85E
:1003500003C0BCF1480F05D14FF0010C0CFA00FCB2
:10036000C2F810C0401C0828D1D31460B1F800C0F6
:10037000BCF1FF0F34DD546800202EE000F1080CC2
:100380004FF0010808FA0CF3B1F800C00CEA0306BC
:100390009E4221D183004FF00F0C0CFA03F7BC43AF
:1003A00005FA03FC4CEA040491F803C0BCF1280FE1
:1003B00005D100F1080C08FA0CF8C2F8148091F885
:1003C00003C0BCF1480F07D100F1080C4FF0010841
:1003D00008FA0CF8C2F81080401C0828CED35460EC
:1003E000BDE8F081F0B50A46002300240021002575
:1003F00000F00046B6F1004F02D11D4EF16901E058
:100400001B4E7168C0F3034583B200F44016B6F585
:10041000401F08D121F07061154E766826F0706695
:10042000134F7E6012E000F48016B6F5801F06D1EF
:10043000032606FA05F4A14341F0706106E0460D7B
:10044000360103FA06F6B14341F0706122B1460D60
:10045000360103FA06F6314300F00046B6F1004FCC
:1004600002D1034EF16101E0014E7160F0BD000068
:10047000000001404161704708B50121084600F0C5
:1004800097F801211848FFF7ADFF01211C2000F06B
:100490008FF84CF60E00ADF8000003208DF8020036
:1004A00010208DF8030069461048FFF710FF4FF445
:1004B0004C50ADF8000003208DF8020010208DF89C
:1004C000030069460A48FFF702FF4FF40050ADF8F9
:1004D000000003208DF8020010208DF8030069460B
:1004E0000448FFF7F4FE08BD000430000008014096
:1004F000000C01400010014000BFFEE708B50121DB
:10050000042000F055F84FF40050ADF8000003202F
:100510008DF8020010208DF8030069460448FFF7AB
:10052000D6FE4FF400510248FFF7A4FF08BD0000BB
:100530000008014000BFFEE77047000070B50021D1
:1005400000230F22C47804B3154C246804F4E0643B
:10055000C4F5E064210AC1F10403CA40447804FAF6
:1005600003F184781440214309010E4C0678A1550B
:10057000047804F01F050124AC4005786D11AD002E
:1005800005F1E025C5F8004109E0047804F01F05F5
:100590000124AC40044D0678761145F8264070BD24
:1005A0000CED00E000E400E080E100E070470000B6
:1005B00029B1064A92690243044B9A6104E0034A56
:1005C00092698243014B9A6170470000001002401B
:1005D00030B500210022002400232D4D6D6805F068
:1005E0000C0121B1042905D0082923D105E0294DAA
:1005F000056022E0274D05601FE0254D6D6805F47C
:100600007012234D6D6805F48034022505EB92428B
:100610001CB9214D554305600BE01D4D6D6805F477
:1006200000351DB11C4D5543056002E0194D554381
:10063000056002E0174D056000BF00BF144D6D68F6
:1006400005F0F0010909154D6B5C0568DD4045605A
:100650000F4D6D6805F4E061090A104D6B5C45684B
:10066000DD4085600A4D6D6805F46051C90A0B4D87
:100670006B5C4568DD40C560054D6D6805F4404123
:10068000890B074D6B5CC568B5FBF3F5056130BDA3
:100690000010024000127A0000093D000000002016
:1006A000100000202DE9F04F95B00746B8464021D4
:1006B0006846FFF7ACFD0025CFE04FF0000BC6E029
:1006C00000201490BBE0002469E0600000EB4510BE
:1006D000385C4DF82400600000EB4510401C385C8D
:1006E0005DF8241000EB01204DF824006100681C27
:1006F00001EB4010385C5DF8241000EB01204DF850
:1007000024006100681C01EB4010401C385C5DF85F
:10071000241000EB01204DF824005DF82400139014
:10072000CBF118011398C84008F814006100A81C08
:1007300001EB4010395C139801EB00201290CBF1D3
:1007400018011298C840C1B26000401C08F800109F
:100750006100A81C01EB4010401C395C129801EBB1
:1007600000201190CBF118011198C840C1B260006F
:10077000203008F800106100E81C01EB4010395CE3
:10078000119801EB00201090CBF118011098C8408F
:10079000C1B26000213008F80010601C84B2102C37
:1007A00093DB4FF0000943E0002637E04FF0000AEA
:1007B0002FE0182101EB4611022202FB09115144DE
:1007C00018F8010000F050F8102101EB4611022248
:1007D00002FB0911514418F8010000F045F8082106
:1007E00001EB4611022202FB0911514418F80100E5
:1007F00000F03AF8002101EB4611022202FB091138
:10080000514418F8010000F02FF80AF101001FFA16
:1008100080FABAF1020FCCDB701C86B2022EC5DB67
:1008200009F0FF0000F048F809F101001FFA80F913
:10083000B9F1040FB8DB1498401C80B214901498DE
:10084000C828FFF640AF0BF101001FFA80FBBBF197
:10085000100FFFF635AF681C85B2112DFFF62DAFD6
:1008600015B0BDE8F08F704770B50446002519E05B
:1008700004F0800018B100200C49086002E001205B
:100880000A49086000200A49086001200949C1F8A6
:10089000840100F021FA0020054908606006040E7A
:1008A000681CC5B2082DE3DB70BD0000A0812142A9
:1008B000840121420000214201210A4A11600021E5
:1008C000094AC2F8B4110121084A116000F001017F
:1008D000074AC2F8BC11012101EA6001034A0C3247
:1008E00011607047B401224200002242AC01214253
:1008F0000000214210B500F001F810BD0CB5002039
:10090000019000903348006840F48030314908601D
:1009100000BF3048006800F4003000900198401C8F
:100920000190009818B90198B0F5A06FF1D129484D
:10093000006800F4003010B10120009001E00020B8
:1009400000900098012843D12348006840F010002F
:10095000214908600846006820F003000860084646
:10096000006840F0020008601A4840681949486071
:100970000846406848600846406840F48060486027
:100980000846406820F47C1048600846406840F4FF
:10099000E81048600846006840F08070086000BFBA
:1009A0000C48006800F000700028F9D00948406841
:1009B00020F00300074948600846406840F0020004
:1009C000486000BF0348406800F00C000828F9D1D7
:1009D0000CBD00000010024000200240042808D195
:1009E0004FF0E021096941F004014FF0E02211616C
:1009F00007E04FF0E021096921F004014FF0E02207
:100A0000116170477047000010B51348006840F04E
:100A100001001149086008464068104908400E4925
:100A20004860084600680E4908400B4908600846BF
:100A3000006820F4802008600846406820F4FE002A
:100A400048604FF41F008860FFF754FF4FF00060CC
:100A50000449086010BD0000001002400000FFF8CB
:100A6000FFFFF6FE08ED00E010B540F225511D48ED
:100A700000F04AF810B31B4800F002F9C4B21A485B
:100A8000008800F40040C8B91748008800F480408E
:100A900060B10A2C03D000201349088020E01248DE
:100AA000008840F400401049088019E00D2C06D160
:100AB0000D48008840F480400B49088010E00A4847
:100AC0000088C0F30D0009490C5407480088401CF9
:100AD0000549088008460088C72801DD00200880F5
:100AE00010BD0000003801401C00002074000020F0
:100AF00021B1828942F40052828104E082894DF65C
:100B0000FF731A408281704770B5024600240023AB
:100B10000025002040F66A16B14200D100BFC1F3A3
:100B2000421501F01F03012606FA03F3012D02D13D
:100B30009689334006E0022D02D1168A334001E047
:100B4000968A33400C12012606FA04F416883440C3
:100B500013B10CB1012000E0002070BDF0B50346D8
:100B6000002400260025002040F66A17B94200D173
:100B700000BF1846C1F3421401F01F06012707FA0F
:100B800006F5012C01D10C3004E0022C01D110300B
:100B900000E014301AB107682F43076002E00768CD
:100BA000AF430760F0BD00002DE9F04786B0054671
:100BB0000E460024A24600BFA1460027B08900B11E
:100BC00000BF2F462C8A4CF6FF700440F088044387
:100BD0002C82AC894EF6F3100440B088318908436A
:100BE000718908430443AC81AC8A4FF6FF4004404E
:100BF000B0890443AC8201A8FFF7EAFC1F48874292
:100C000002D1DDF810A001E0DDF80CA0A88900F405
:100C1000004040B10AEBCA0000EB0A1031684900FD
:100C2000B0FBF1F807E00AEBCA0000EB0A103168EC
:100C30008900B0FBF1F86420B8FBF0F00401200952
:100C4000642101FB1089A88900F4004040B13220E2
:100C500000EBC900B0FBF1F000F00700044308E02E
:100C6000322000EB09106421B0FBF1F000F00F001E
:100C700004432C8106B0BDE8F08700000038014035
:100C800001468888C0F30800704700BFFEE700BF38
:100C90007047000010B56FF00400FFF79FFE0A4890
:100CA00000680A49B0FBF1F009490870084600786D
:100CB00000EB4001C1EBC0104FF6FF7101EAC0002C
:100CC0000449088010BD00002000002000127A00B6
:100CD00014000020160000200146114A12784A43F1
:100CE0004FF0E0235A6100229A611A46126942F0DD
:100CF00001021A6100BF4FF0E022106900F001020A
:100D00001AB100F48032002AF5D04FF0E0221269C7
:100D100022F001024FF0E0231A6100229A6170472D
:100D20001400002000BFFFF7B5FF4FF4E13000F0E2
:100D300011F8FFF7A1FBFFF7E1FB00200349086072
:100D400002E00348FFF7AEFCFBE70000B4012142DC
:100D50003400002010B586B00446012144F205009D
:100D6000FFF726FC4FF40070ADF8140003208DF857
:100D7000160018208DF8170005A91C48FFF7A7FAE0
:100D80004FF48060ADF8140004208DF8170005A919
:100D90001648FFF79CFA25208DF8000003208DF8F7
:100DA00001008DF8020001208DF803006846FFF76E
:100DB000C5FB01940020ADF80800ADF80A00ADF8BD
:100DC0000C00ADF810000C20ADF80E0001A9084889
:100DD000FFF7EAFE012240F225510548FFF7BEFE6B
:100DE00001210348FFF784FE06B010BD0008014052
:100DF00000380140140E00080000002074000000BC
:100E00006C010008880E0008740000202C07000008
:100E1000880100080000000001020304010203042D
:100E20000607080902040608000000000000000090
:100E30000000000000A24A040000000000000000C2
:100E400001020304060708090100010001003FF840
:100E50002108210821083FF82108210821083FF82E
:100E6000210A0102010200FE00007FF800100020AC
:100E7000004001800100FFFE0100010001000100AF
:080E8000010001000500020061
:0400000508000131BD
:00000001FF
